{
  "contractName": "ToDo",
  "abi": [
    {
      "anonymous": false,
      "inputs": [
        {
          "indexed": false,
          "internalType": "uint256",
          "name": "id",
          "type": "uint256"
        },
        {
          "indexed": false,
          "internalType": "string",
          "name": "task",
          "type": "string"
        },
        {
          "indexed": false,
          "internalType": "string",
          "name": "time",
          "type": "string"
        }
      ],
      "name": "LogTaskAdded",
      "type": "event"
    },
    {
      "constant": true,
      "inputs": [],
      "name": "getTaskCount",
      "outputs": [
        {
          "internalType": "uint256",
          "name": "length",
          "type": "uint256"
        }
      ],
      "payable": false,
      "stateMutability": "view",
      "type": "function"
    },
    {
      "constant": true,
      "inputs": [
        {
          "internalType": "uint256",
          "name": "index",
          "type": "uint256"
        }
      ],
      "name": "getTaskIdAt",
      "outputs": [
        {
          "internalType": "uint256",
          "name": "id",
          "type": "uint256"
        }
      ],
      "payable": false,
      "stateMutability": "view",
      "type": "function"
    },
    {
      "constant": true,
      "inputs": [
        {
          "internalType": "uint256",
          "name": "id",
          "type": "uint256"
        }
      ],
      "name": "getTask",
      "outputs": [
        {
          "internalType": "string",
          "name": "task",
          "type": "string"
        },
        {
          "internalType": "string",
          "name": "time",
          "type": "string"
        }
      ],
      "payable": false,
      "stateMutability": "view",
      "type": "function"
    },
    {
      "constant": false,
      "inputs": [
        {
          "internalType": "uint256",
          "name": "id",
          "type": "uint256"
        },
        {
          "internalType": "string",
          "name": "task",
          "type": "string"
        },
        {
          "internalType": "string",
          "name": "time",
          "type": "string"
        }
      ],
      "name": "addTask",
      "outputs": [
        {
          "internalType": "bool",
          "name": "success",
          "type": "bool"
        }
      ],
      "payable": false,
      "stateMutability": "nonpayable",
      "type": "function"
    }
  ],
  "bytecode": "0x608060405234801561001057600080fd5b50610751806100206000396000f3fe608060405234801561001057600080fd5b506004361061004c5760003560e01c80631d65e77e14610051578063c17a340e14610164578063f5d0212314610182578063fb8820c2146101c4575b600080fd5b61007d6004803603602081101561006757600080fd5b8101908080359060200190929190505050610338565b604051808060200180602001838103835285818151815260200191508051906020019080838360005b838110156100c15780820151818401526020810190506100a6565b50505050905090810190601f1680156100ee5780820380516001836020036101000a031916815260200191505b50838103825284818151815260200191508051906020019080838360005b8381101561012757808201518184015260208101905061010c565b50505050905090810190601f1680156101545780820380516001836020036101000a031916815260200191505b5094505050505060405180910390f35b61016c61049b565b6040518082815260200191505060405180910390f35b6101ae6004803603602081101561019857600080fd5b81019080803590602001909291905050506104a8565b6040518082815260200191505060405180910390f35b61031e600480360360608110156101da57600080fd5b81019080803590602001909291908035906020019064010000000081111561020157600080fd5b82018360208201111561021357600080fd5b8035906020019184600183028401116401000000008311171561023557600080fd5b91908080601f016020809104026020016040519081016040528093929190818152602001838380828437600081840152601f19601f8201169050808301925050505050505091929192908035906020019064010000000081111561029857600080fd5b8201836020820111156102aa57600080fd5b803590602001918460018302840111640100000000831117156102cc57600080fd5b91908080601f016020809104026020016040519081016040528093929190818152602001838380828437600081840152601f19601f8201169050808301925050505050505091929192905050506104c9565b604051808215151515815260200191505060405180910390f35b606080600080600085815260200190815260200160002090508060000181600101818054600181600116156101000203166002900480601f0160208091040260200160405190810160405280929190818152602001828054600181600116156101000203166002900480156103ee5780601f106103c3576101008083540402835291602001916103ee565b820191906000526020600020905b8154815290600101906020018083116103d157829003601f168201915b50505050509150808054600181600116156101000203166002900480601f01602080910402602001604051908101604052809291908181526020018280546001816001161561010002031660029004801561048a5780601f1061045f5761010080835404028352916020019161048a565b820191906000526020600020905b81548152906001019060200180831161046d57829003601f168201915b505050505090509250925050915091565b6000600180549050905090565b6000600182815481106104b757fe5b90600052602060002001549050919050565b6000604051806040016040528084815260200183815250600080868152602001908152602001600020600082015181600001908051906020019061050e929190610677565b50602082015181600101908051906020019061052b929190610677565b5090505060018490806001815401808255809150509060018203906000526020600020016000909192909190915055507f465dcef349131c00c73684c73bf8af8da869c54044b9b12d80e66ec654c717eb848484604051808481526020018060200180602001838103835285818151815260200191508051906020019080838360005b838110156105c95780820151818401526020810190506105ae565b50505050905090810190601f1680156105f65780820380516001836020036101000a031916815260200191505b50838103825284818151815260200191508051906020019080838360005b8381101561062f578082015181840152602081019050610614565b50505050905090810190601f16801561065c5780820380516001836020036101000a031916815260200191505b509550505050505060405180910390a1600190509392505050565b828054600181600116156101000203166002900490600052602060002090601f016020900481019282601f106106b857805160ff19168380011785556106e6565b828001600101855582156106e6579182015b828111156106e55782518255916020019190600101906106ca565b5b5090506106f391906106f7565b5090565b61071991905b808211156107155760008160009055506001016106fd565b5090565b9056fea265627a7a72315820f2739396515140bcd1fbda029a2b3260daeac30ed4f5cc55d5b3be93478e3f3364736f6c63430005100032",
  "source": "pragma solidity >=0.4.22 <0.9.0;\n\ncontract ToDo {\n    struct Routine {\n        string task;\n        string time;\n    }\n\n    event LogTaskAdded(uint id, string task, string time);\n\n    mapping(uint => Routine) private routines;\n    uint[] private ids;\n\n    function getTaskCount() public view returns (uint length) {\n        return ids.length;\n    }\n\n    function getTaskIdAt(uint index) public view returns (uint id) {\n        return ids[index];\n    }\n\n    function getTask(uint id) public view returns (string memory task, string memory time) {\n        Routine storage routine = routines[id];\n        return (routine.task, routine.time);\n    }\n\n    function addTask(uint id, string memory task, string memory time) public returns (bool success) {\n        routines[id] = Routine({task: task, time: time});\n        ids.push(id);\n\n        emit LogTaskAdded(id, task, time);\n        return true;\n    }\n}\n\n",
  "sourcePath": "/home/pi/mntRaspi/solidity/ToDo/contracts/todo.sol",
  "compiler": {
    "name": "solc",
    "version": "0.5.16+commit.9c3226ce.Emscripten.clang"
  },
  "schemaVersion": "3.4.0",
  "updatedAt": "2021-05-08T14:17:16.434Z",
  "networkType": "ethereum",
  "devdoc": {
    "methods": {}
  },
  "userdoc": {
    "methods": {}
  }
}