{
  "contractName": "Sellable",
  "abi": [
    {
      "inputs": [],
      "payable": false,
      "stateMutability": "nonpayable",
      "type": "constructor"
    },
    {
      "anonymous": false,
      "inputs": [
        {
          "indexed": false,
          "internalType": "uint256",
          "name": "_saleDate",
          "type": "uint256"
        },
        {
          "indexed": false,
          "internalType": "address",
          "name": "_from",
          "type": "address"
        },
        {
          "indexed": false,
          "internalType": "address",
          "name": "_to",
          "type": "address"
        },
        {
          "indexed": false,
          "internalType": "uint256",
          "name": "_salePrice",
          "type": "uint256"
        }
      ],
      "name": "Transfer",
      "type": "event"
    },
    {
      "constant": true,
      "inputs": [],
      "name": "askingPrice",
      "outputs": [
        {
          "internalType": "uint256",
          "name": "",
          "type": "uint256"
        }
      ],
      "payable": false,
      "stateMutability": "view",
      "type": "function"
    },
    {
      "constant": true,
      "inputs": [],
      "name": "owner",
      "outputs": [
        {
          "internalType": "address",
          "name": "",
          "type": "address"
        }
      ],
      "payable": false,
      "stateMutability": "view",
      "type": "function"
    },
    {
      "constant": true,
      "inputs": [],
      "name": "selling",
      "outputs": [
        {
          "internalType": "bool",
          "name": "",
          "type": "bool"
        }
      ],
      "payable": false,
      "stateMutability": "view",
      "type": "function"
    },
    {
      "constant": true,
      "inputs": [],
      "name": "sellingTo",
      "outputs": [
        {
          "internalType": "address",
          "name": "",
          "type": "address"
        }
      ],
      "payable": false,
      "stateMutability": "view",
      "type": "function"
    },
    {
      "constant": false,
      "inputs": [
        {
          "internalType": "uint256",
          "name": "_price",
          "type": "uint256"
        },
        {
          "internalType": "address",
          "name": "_to",
          "type": "address"
        }
      ],
      "name": "initiateSale",
      "outputs": [],
      "payable": false,
      "stateMutability": "nonpayable",
      "type": "function"
    },
    {
      "constant": false,
      "inputs": [],
      "name": "cancelSale",
      "outputs": [],
      "payable": false,
      "stateMutability": "nonpayable",
      "type": "function"
    },
    {
      "constant": false,
      "inputs": [
        {
          "internalType": "uint256",
          "name": "valued",
          "type": "uint256"
        }
      ],
      "name": "completeSale",
      "outputs": [],
      "payable": true,
      "stateMutability": "payable",
      "type": "function"
    }
  ],
  "bytecode": "0x608060405260008060146101000a81548160ff02191690831515021790555034801561002a57600080fd5b50336000806101000a81548173ffffffffffffffffffffffffffffffffffffffff021916908373ffffffffffffffffffffffffffffffffffffffff1602179055507ff2dbd98d79f00f7aff338b824931d607bfcc63d47307162470f25a055102d3b04260008060009054906101000a900473ffffffffffffffffffffffffffffffffffffffff166000604051808581526020018473ffffffffffffffffffffffffffffffffffffffff1673ffffffffffffffffffffffffffffffffffffffff1681526020018373ffffffffffffffffffffffffffffffffffffffff1673ffffffffffffffffffffffffffffffffffffffff16815260200182815260200194505050505060405180910390a161075f806101446000396000f3fe6080604052600436106100705760003560e01c80634d8a96101161004e5780634d8a96101461012a578063750225d0146101815780638da5cb5b146101af578063e7e104901461020657610070565b806309e949e8146100755780631a7ac726146100d057806323aed228146100fb575b600080fd5b34801561008157600080fd5b506100ce6004803603604081101561009857600080fd5b8101908080359060200190929190803573ffffffffffffffffffffffffffffffffffffffff16906020019092919050505061021d565b005b3480156100dc57600080fd5b506100e5610389565b6040518082815260200191505060405180910390f35b34801561010757600080fd5b5061011061038f565b604051808215151515815260200191505060405180910390f35b34801561013657600080fd5b5061013f6103a2565b604051808273ffffffffffffffffffffffffffffffffffffffff1673ffffffffffffffffffffffffffffffffffffffff16815260200191505060405180910390f35b6101ad6004803603602081101561019757600080fd5b81019080803590602001909291905050506103c8565b005b3480156101bb57600080fd5b506101c4610623565b604051808273ffffffffffffffffffffffffffffffffffffffff1673ffffffffffffffffffffffffffffffffffffffff16815260200191505060405180910390f35b34801561021257600080fd5b5061021b610648565b005b6000809054906101000a900473ffffffffffffffffffffffffffffffffffffffff1673ffffffffffffffffffffffffffffffffffffffff163373ffffffffffffffffffffffffffffffffffffffff161461027657600080fd5b3073ffffffffffffffffffffffffffffffffffffffff168173ffffffffffffffffffffffffffffffffffffffff16141580156102ff57506000809054906101000a900473ffffffffffffffffffffffffffffffffffffffff1673ffffffffffffffffffffffffffffffffffffffff168173ffffffffffffffffffffffffffffffffffffffff1614155b61030857600080fd5b600060149054906101000a900460ff161561032257600080fd5b6001600060146101000a81548160ff02191690831515021790555080600160006101000a81548173ffffffffffffffffffffffffffffffffffffffff021916908373ffffffffffffffffffffffffffffffffffffffff160217905550816002819055505050565b60025481565b600060149054906101000a900460ff1681565b600160009054906101000a900473ffffffffffffffffffffffffffffffffffffffff1681565b600060149054906101000a900460ff166103e157600080fd5b6000809054906101000a900473ffffffffffffffffffffffffffffffffffffffff1673ffffffffffffffffffffffffffffffffffffffff163373ffffffffffffffffffffffffffffffffffffffff16141561043b57600080fd5b600160009054906101000a900473ffffffffffffffffffffffffffffffffffffffff1673ffffffffffffffffffffffffffffffffffffffff163373ffffffffffffffffffffffffffffffffffffffff1614806104e55750600073ffffffffffffffffffffffffffffffffffffffff16600160009054906101000a900473ffffffffffffffffffffffffffffffffffffffff1673ffffffffffffffffffffffffffffffffffffffff16145b6104ee57600080fd5b60025481146104fc57600080fd5b60008060009054906101000a900473ffffffffffffffffffffffffffffffffffffffff169050600033905060006002549050816000806101000a81548173ffffffffffffffffffffffffffffffffffffffff021916908373ffffffffffffffffffffffffffffffffffffffff1602179055507ff2dbd98d79f00f7aff338b824931d607bfcc63d47307162470f25a055102d3b042848484604051808581526020018473ffffffffffffffffffffffffffffffffffffffff1673ffffffffffffffffffffffffffffffffffffffff1681526020018373ffffffffffffffffffffffffffffffffffffffff1673ffffffffffffffffffffffffffffffffffffffff16815260200182815260200194505050505060405180910390a161061d6106c4565b50505050565b6000809054906101000a900473ffffffffffffffffffffffffffffffffffffffff1681565b6000809054906101000a900473ffffffffffffffffffffffffffffffffffffffff1673ffffffffffffffffffffffffffffffffffffffff163373ffffffffffffffffffffffffffffffffffffffff16146106a157600080fd5b600060149054906101000a900460ff166106ba57600080fd5b6106c26106c4565b565b60008060146101000a81548160ff0219169083151502179055506000600160006101000a81548173ffffffffffffffffffffffffffffffffffffffff021916908373ffffffffffffffffffffffffffffffffffffffff160217905550600060028190555056fea265627a7a7231582070ca8181b320806038ca865d1b78ff1be5f50d55371281447d02706a4724202e64736f6c63430005100032",
  "source": "pragma solidity >=0.4.22 <0.9.0;\n\ncontract Sellable {\n\n    address public owner;\n    bool public selling = false;\n    address public sellingTo;\n    uint public askingPrice;\n\n    modifier onlyOwner {\n        require(msg.sender == owner);\n        _;\n    }\n\n    modifier ifNotLocked {\n        require(!selling);\n        _;\n    }\n\n    event Transfer(uint _saleDate, address _from, address _to, uint _salePrice);\n\n    constructor() public {\n        owner = msg.sender;\n        emit Transfer(now, address(0), owner,0);\n    }\n\n    function initiateSale(uint _price, address _to) onlyOwner public {\n        require(_to != address(this) && _to != owner);\n        require(!selling);\n\n        selling = true;\n        sellingTo = _to;\n        askingPrice = _price;\n    }\n\n    function cancelSale() onlyOwner public {\n        require(selling);\n        resetSale();\n    }\n\n    function completeSale(uint valued) public payable {\n        require(selling);\n        require(msg.sender != owner);\n        require(msg.sender == sellingTo || sellingTo == address(0));\n        require(valued == askingPrice);\n\n        address prevOwner = owner;\n        address newOwner = msg.sender;\n        uint salePrice = askingPrice;\n\n        owner = newOwner;\n\n        emit Transfer(now, prevOwner, newOwner, salePrice);\n        resetSale();\n    }\n\n    function resetSale() internal {\n        selling = false;\n        sellingTo = address(0);\n        askingPrice = 0;\n    }\n        \n}\n\n",
  "sourcePath": "/home/pi/mntRaspi/solidity/Sellable/contracts/sell.sol",
  "compiler": {
    "name": "solc",
    "version": "0.5.16+commit.9c3226ce.Emscripten.clang"
  },
  "schemaVersion": "3.4.0",
  "updatedAt": "2021-05-08T14:36:57.464Z",
  "networkType": "ethereum",
  "devdoc": {
    "methods": {}
  },
  "userdoc": {
    "methods": {}
  }
}